:100000000C9446000C9465000C9465000C946500FB
:100010000C9465000C9465000C9465000C946500CC
:100020000C9465000C9465000C9465000C946500BC
:100030000C9465000C9465000C9465000C946500AC
:100040000C9465000C9465000C9465000C9465009C
:100050000C9465000C9465000C9465000C9465008C
:100060000C9465000C9465000C9465000C9465007C
:100070000C9465000C9465000C9465000C9465006C
:100080000C9465000C9465000C94650011241FBE4F
:10009000CFEFD0E4DEBFCDBF11E0A0E0B1E0ECEDEA
:1000A000F2E000E00BBF02C007900D92AE30B10746
:1000B000D9F711E0AEE0B1E001C01D92A431B10763
:1000C000E1F70E943F010C946C010C940000CF9367
:1000D000DF9300D01F92CDB7DEB789837B836A831D
:1000E00089818A3031F48A819B81BC018DE00E9434
:1000F000670080EC90E0FC018081882F90E08072A6
:1001000099270097B1F386EC90E02981FC012083C8
:1001100080E090E00F900F900F90DF91CF910895C5
:10012000CF93DF93CDB7DEB780910F01909110018F
:1001300081309105A9F08130910538F08230910528
:10014000F9F08330910591F141C0109212011092A3
:10015000110181E090E09093100180930F013AC06B
:1001600080910E01882F90E081709927009739F0D7
:1001700082E090E09093100180930F012BC02AC081
:1001800080910E01882F90E081709927009739F4B3
:1001900081E090E09093100180930F011BC083E0F9
:1001A00090E09093100180930F0114C080910E0194
:1001B000882F90E081709927009739F481E090E0D2
:1001C0009093100180930F0105C004C0109210019C
:1001D00010920F0180910F019091100182309105D2
:1001E00039F08330910551F18130910539F144C0E6
:1001F0008091110190911201009739F481E090E013
:10020000909312018093110119C080911101909176
:1002100012018130910539F482E090E0909312014F
:10022000809311010BC080911101909112018230D5
:10023000910521F410921201109211018091110187
:1002400090911201009719F485E180931301809138
:100250001101909112018130910519F48AE2809385
:10026000130180911101909112018230910519F4CE
:100270008FE3809313010000DF91CF910895CF9316
:10028000DF93CDB7DEB78AE290E0FC0110828BE20B
:1002900090E02FEFFC01208381E290E02FEFFC0142
:1002A000208382E290E0FC011082109213011092F0
:1002B0000E011092100110920F0180E290E0FC01FB
:1002C000808180930E010E9490008BE290E020914B
:0C02D0001301FC012083F1CFF894FFCF54
:0E02DC000000000200000000670000000000AB
:00000001FF
