:100000000C9446000C945D000C945D000C945D0013
:100010000C945D000C945D000C945D000C945D00EC
:100020000C945D000C945D000C945D000C945D00DC
:100030000C945D000C945D000C945D000C945D00CC
:100040000C945D000C945D000C945D000C945D00BC
:100050000C945D000C945D000C945D000C945D00AC
:100060000C945D000C945D000C945D000C945D009C
:100070000C945D000C945D000C945D000C945D008C
:100080000C945D000C945D000C945D0011241FBE67
:10009000CFEFD0E4DEBFCDBF11E0A0E0B1E0E6E2FB
:1000A000F2E000E00BBF02C007900D92AE30B10746
:1000B000D9F70E9488000C9411010C940000CF9392
:1000C000DF9300D01F92CDB7DEB789837B836A832D
:1000D00089818A3031F48A819B81BC018DE00E9444
:1000E0005F0080EC90E0FC018081882F90E08072BE
:1000F00099270097B1F386EC90E02981FC012083D9
:1001000080E090E00F900F900F90DF91CF910895D5
:10011000CF93DF9300D000D000D0CDB7DEB78AE216
:1001200090E0FC0110828BE290E02FEFFC01208335
:1001300081E290E02FEFFC01208382E290E0FC015D
:1001400010821E8219828FED8A8380E18B8380E288
:100150008C8389E290E0FC0180818E8319821D826C
:1001600022C08E81882F90E09C012F7033278D81D3
:10017000882F90E0880F991F01962817390734F0CF
:1001800099818A8198238C81892B89839A818B819B
:10019000890F8A838B8186958B838C8186958C834E
:1001A0008D818F5F8D838D818330D8F21D8225C034
:1001B0008E81882F90E0AC014F7055278D81282FBC
:1001C00030E0C901880F991F820F931F07964817C7
:1001D000590734F099818A8198238C81892B8983EE
:1001E0009A818B81890F8A838B8186958B838C8101
:1001F00086958C838D818F5F8D838D818330C0F256
:100200008E81882F90E08F709927853091051CF49E
:1002100089818064898382E290E02981FC012083C6
:0602200092CFF894FFCF1D
:0E02260000000002000000005F000000000069
:00000001FF
