:100000000C9446000C945D000C945D000C945D0013
:100010000C945D000C945D000C945D000C945D00EC
:100020000C945D000C945D000C945D000C945D00DC
:100030000C945D000C945D000C945D000C945D00CC
:100040000C945D000C945D000C945D000C945D00BC
:100050000C945D000C945D000C945D000C945D00AC
:100060000C945D000C945D000C945D000C945D009C
:100070000C945D000C945D000C945D000C945D008C
:100080000C945D000C945D000C945D0011241FBE67
:10009000CFEFD0E4DEBFCDBF11E0A0E0B1E0E4EBF4
:1000A000F1E000E00BBF02C007900D92AE30B10747
:1000B000D9F70E9488000C94D8000C940000CF93CC
:1000C000DF9300D01F92CDB7DEB789837B836A832D
:1000D00089818A3031F48A819B81BC018DE00E9444
:1000E0005F0080EC90E0FC018081882F90E08072BE
:1000F00099270097B1F386EC90E02981FC012083D9
:1001000080E090E00F900F900F90DF91CF910895D5
:10011000CF93DF9300D000D0CDB7DEB781E290E07F
:10012000FC01108282E290E02FEFFC01208384E248
:1001300090E02FEFFC01208385E290E0FC0110822B
:1001400087E290E02FEFFC01208388E290E0FC0141
:100150001082198280E290E0FC01808189831B82F9
:100160001A821C821B821A8212C08981882F90E019
:1001700081709927009719F48C818F5F8C83898116
:10018000869589838A819B8101969B838A838A8154
:100190009B81843091054CF38C81882319F48C81E8
:1001A00080688C8388E290E02C81FC012083D2CF90
:0401B000F894FFCFF1
:0E01B40000000002000000005F0000000000DC
:00000001FF
