:100000000C9446000C945D000C945D000C945D0013
:100010000C945D000C945D000C945D000C945D00EC
:100020000C945D000C945D000C945D000C945D00DC
:100030000C945D000C945D000C945D000C945D00CC
:100040000C945D000C945D000C945D000C945D00BC
:100050000C945D000C945D000C945D000C945D00AC
:100060000C945D000C945D000C945D000C945D009C
:100070000C945D000C945D000C945D000C945D008C
:100080000C945D000C945D000C945D0011241FBE67
:10009000CFEFD0E4DEBFCDBF11E0A0E0B1E0E0E7FC
:1000A000F2E000E00BBF02C007900D92AE30B10746
:1000B000D9F70E9488000C9436010C940000CF936D
:1000C000DF9300D01F92CDB7DEB789837B836A832D
:1000D00089818A3031F48A819B81BC018DE00E9444
:1000E0005F0080EC90E0FC018081882F90E08072BE
:1000F00099270097B1F386EC90E02981FC012083D9
:1001000080E090E00F900F900F90DF91CF910895D5
:10011000CF93DF9300D01F92CDB7DEB781E290E09E
:10012000FC01108282E290E02FEFFC01208384E248
:1001300090E0FC01108285E290E02FEFFC0120832B
:1001400087E290E0FC01108288E290E02FEFFC0152
:1001500020838AE290E02FEFFC0120838BE290E085
:10016000FC01108219821A821B8280E290E0FC015D
:100170008081898383E290E0FC0180818A8386E22A
:1001800090E0FC0180818B838BE290E0FC01108287
:100190008981282F30E08A81882F90E0280F391F2D
:1001A0008B81882F90E0820F931F8D3891054CF042
:1001B0008BE290E02BE230E0F90120812160FC012C
:1001C00020838981282F30E08B81882F90E0A9013E
:1001D000481B590BCA01813591056CF48B81282F7E
:1001E00030E08981882F90E0F901E81BF90BCF01FD
:1001F000813591054CF08BE290E02BE230E0F90183
:1002000020812260FC0120838BE290E02BE230E031
:10021000F9012081622F63702981422F50E02A81E9
:10022000222F30E0420F531F2B81222F30E0240F6A
:10023000351F3595279535952795262BFC0120836D
:100240008981282F30E08A81882F90E0280F391F7C
:100250008B81882F90E0820F931F8C38910529F4B1
:100260008BE290E022E2FC0120837FCFF894FFCF65
:0E02700000000002000000005F00000000001F
:00000001FF
