:100000000C9446000C945D000C945D000C945D0013
:100010000C945D000C945D000C945D000C945D00EC
:100020000C945D000C945D000C945D000C945D00DC
:100030000C945D000C945D000C945D000C945D00CC
:100040000C945D000C945D000C945D000C945D00BC
:100050000C945D000C945D000C945D000C945D00AC
:100060000C945D000C945D000C945D000C945D009C
:100070000C945D000C945D000C945D000C945D008C
:100080000C945D000C945D000C945D0011241FBE67
:10009000CFEFD0E4DEBFCDBF11E0A0E0B1E0E0ECF7
:1000A000F1E000E00BBF02C007900D92AE30B10747
:1000B000D9F70E9488000C94DE000C940000CF93C6
:1000C000DF9300D01F92CDB7DEB789837B836A832D
:1000D00089818A3031F48A819B81BC018DE00E9444
:1000E0005F0080EC90E0FC018081882F90E08072BE
:1000F00099270097B1F386EC90E02981FC012083D9
:1001000080E090E00F900F900F90DF91CF910895D5
:10011000CF93DF9300D000D0CDB7DEB781E290E07F
:10012000FC01108282E290E02FEFFC01208384E248
:1001300090E0FC01108285E290E02FEFFC0120832B
:1001400087E290E02FEFFC01208388E290E0FC0141
:10015000108219821A821B8280E290E0FC01808169
:10016000898383E290E0FC0180818A831C821DC028
:100170008981882F90E081709927009719F08B81F1
:100180008F5F8B838A81882F90E0817099270097F9
:1001900019F08B818F5F8B838981869589838A8112
:1001A00086958A838C818F5F8C838C81883000F365
:1001B00088E290E02B81FC012083CDCFF894FFCF23
:0E01C00000000002000000005F0000000000D0
:00000001FF
