:100000000C9446000C945D000C945D000C945D0013
:100010000C945D000C945D000C945D000C945D00EC
:100020000C945D000C945D000C945D000C945D00DC
:100030000C945D000C945D000C945D000C945D00CC
:100040000C945D000C945D000C945D000C945D00BC
:100050000C945D000C945D000C945D000C945D00AC
:100060000C945D000C945D000C945D000C945D009C
:100070000C945D000C945D000C945D000C945D008C
:100080000C945D000C945D000C945D0011241FBE67
:10009000CFEFD0E4DEBFCDBF11E0A0E0B1E0E2EAF7
:1000A000F1E000E00BBF02C007900D92AE30B10747
:1000B000D9F70E9488000C94CF000C940000CF93D5
:1000C000DF9300D01F92CDB7DEB789837B836A832D
:1000D00089818A3031F48A819B81BC018DE00E9444
:1000E0005F0080EC90E0FC018081882F90E08072BE
:1000F00099270097B1F386EC90E02981FC012083D9
:1001000080E090E00F900F900F90DF91CF910895D5
:10011000CF93DF9300D0CDB7DEB781E290E0FC0152
:10012000108282E290E02FEFFC01208384E290E0D5
:100130002FEFFC01208385E290E0FC01108287E232
:1001400090E02FEFFC01208388E290E0FC01108218
:1001500019821A8280E290E0FC018081807F89838D
:1001600080E290E0FC0180818F708A8385E290E0DC
:1001700025E230E0F9012081322F307F2981232BC5
:10018000FC01208388E290E028E230E0F901208140
:10019000322F3F702A81232BFC012083DBCFF89480
:0201A000FFCF8F
:0E01A20000000002000000005F0000000000EE
:00000001FF
