:100000000C9446000C945D000C945D000C945D0013
:100010000C945D000C945D000C945D000C945D00EC
:100020000C945D000C945D000C945D000C945D00DC
:100030000C945D000C945D000C945D000C945D00CC
:100040000C945D000C945D000C945D000C945D00BC
:100050000C945D000C945D000C945D000C945D00AC
:100060000C945D000C945D000C945D000C945D009C
:100070000C945D000C945D000C945D000C945D008C
:100080000C945D000C945D000C945D0011241FBE67
:10009000CFEFD0E4DEBFCDBF11E0A0E0B1E0E4E6F9
:1000A000F2E000E00BBF02C007900D92AE30B10746
:1000B000D9F70E9488000C9430010C940000CF9373
:1000C000DF9300D01F92CDB7DEB789837B836A832D
:1000D00089818A3031F48A819B81BC018DE00E9444
:1000E0005F0080EC90E0FC018081882F90E08072BE
:1000F00099270097B1F386EC90E02981FC012083D9
:1001000080E090E00F900F900F90DF91CF910895D5
:10011000CF93DF9300D000D000D0CDB7DEB781E21F
:1001200090E0FC01108282E290E02FEFFC0120833E
:1001300087E290E02FEFFC01208388E290E0FC0151
:1001400010821E8219828FED8A8380E18B8380E288
:100150008C8380E290E0FC0180818E831D8231C01F
:100160008E81882F90E09C012F7033278D81882FFE
:1001700090E0880F991F019628173907ACF08E81FF
:10018000882F90E09C012F7033278D81882F90E07D
:100190000196880F991F8217930734F099818A81FD
:1001A00098238C81892B89839A818B81890F8A83FB
:1001B0008B8186958B838C8186958C838D818F5FD7
:1001C0008D838D81833060F21D8237C08E81882FB0
:1001D00090E0AC014F7055278D81282F30E0C90188
:1001E000880F991F820F931F079648175907C4F06D
:1001F0008E81882F90E0AC014F7055278D81282F7C
:1002000030E0C901880F991F820F931F0996841748
:10021000950734F099818A8198238C81892B898371
:100220009A818B81890F8A838B8186958B838C81C0
:1002300086958C838D818F5F8D838D81833030F2A5
:100240008E81853020F489818064898303C089810F
:100250008F7B898388E290E02981FC01208373CF22
:04026000F894FFCF40
:0E02640000000002000000005F00000000002B
:00000001FF
