:100000000C9446000C945D000C945D000C945D0013
:100010000C945D000C945D000C945D000C945D00EC
:100020000C945D000C945D000C945D000C945D00DC
:100030000C945D000C945D000C945D000C945D00CC
:100040000C945D000C945D000C945D000C945D00BC
:100050000C945D000C945D000C945D000C945D00AC
:100060000C945D000C945D000C945D000C945D009C
:100070000C945D000C945D000C945D000C945D008C
:100080000C945D000C945D000C945D0011241FBE67
:10009000CFEFD0E4DEBFCDBF11E0A0E0B1E0E8EAF1
:1000A000F1E000E00BBF02C007900D92AE30B10747
:1000B000D9F70E9488000C94D2000C940000CF93D2
:1000C000DF9300D01F92CDB7DEB789837B836A832D
:1000D00089818A3031F48A819B81BC018DE00E9444
:1000E0005F0080EC90E0FC018081882F90E08072BE
:1000F00099270097B1F386EC90E02981FC012083D9
:1001000080E090E00F900F900F90DF91CF910895D5
:10011000CF93DF9300D0CDB7DEB784E290E021E04B
:10012000FC01208385E290E021E0FC01208384E251
:1001300090E02EEFFC01208385E290E021E0FC01BD
:1001400020838AE290E0FC01108282E290E02FEFAF
:10015000FC01208319821A8289E290E0FC018081EF
:100160008A8383E290E0FC01808189838A818332E3
:1001700048F085E290E025E230E0F901208122603C
:10018000FC0120838A81833260F48981863048F0C3
:1001900085E290E025E230E0F90120812460FC0155
:0801A0002083DACFF894FFCFB1
:0E01A80000000002000000005F0000000000E8
:00000001FF
