:100000000C9446000C945D000C945D000C945D0013
:100010000C945D000C945D000C945D000C945D00EC
:100020000C945D000C945D000C945D000C945D00DC
:100030000C945D000C945D000C945D000C945D00CC
:100040000C945D000C945D000C945D000C945D00BC
:100050000C945D000C945D000C945D000C945D00AC
:100060000C945D000C945D000C945D000C945D009C
:100070000C945D000C945D000C945D000C945D008C
:100080000C945D000C945D000C945D0011241FBE67
:10009000CFEFD0E4DEBFCDBF11E0A0E0B1E0ECE5F2
:1000A000F2E000E00BBF02C007900D92AE30B10746
:1000B000D9F70E9488000C942C010C940000CF9377
:1000C000DF9300D01F92CDB7DEB789837B836A832D
:1000D00089818A3031F48A819B81BC018DE00E9444
:1000E0005F0080EC90E0FC018081882F90E08072BE
:1000F00099270097B1F386EC90E02981FC012083D9
:1001000080E090E00F900F900F90DF91CF910895D5
:10011000CF93DF93CDB7DEB728970FB6F894DEBF45
:100120000FBECDBF81E290E0FC01108282E290E040
:100130002FEFFC01208387E290E02FEFFC0120836A
:1001400088E290E0FC0110821C8219828FED8A8384
:1001500080E290E0FC0180818C831B823DC08C8119
:10016000282F30E08B81882F90E0880F991F01960F
:100170002817390761F08C81282F30E08B81882F78
:1001800090E00196880F991F2817390791F49981FB
:100190008A818923482F8B81882F90E09C012F5FD3
:1001A0003F4F80E290E0B9010E940401CB01842B13
:1001B00089838B81882F90E09C012F5F3F4F80E1E6
:1001C00090E0B9010E940401CB01982F8A81890F28
:1001D0008A838B818F5F8B838B81833008F4BFCFC1
:1001E0001B8203C08B818F5F8B838B818330D0F325
:1001F0008C81853018F489818064898388E290E05D
:100200002981FC012083A2CF97FB072E16F40094CE
:1002100007D077FD09D00E94180107FC05D03EF4F5
:10022000909581959F4F0895709561957F4F0895A2
:10023000AA1BBB1B51E107C0AA1FBB1FA617B7070C
:1002400010F0A61BB70B881F991F5A95A9F7809528
:0C0250009095BC01CD010895F894FFCFFB
:0E025C0000000002000000005F000000000033
:00000001FF
