:100000000C9446000C945D000C945D000C945D0013
:100010000C945D000C945D000C945D000C945D00EC
:100020000C945D000C945D000C945D000C945D00DC
:100030000C945D000C945D000C945D000C945D00CC
:100040000C945D000C945D000C945D000C945D00BC
:100050000C945D000C945D000C945D000C945D00AC
:100060000C945D000C945D000C945D000C945D009C
:100070000C945D000C945D000C945D000C945D008C
:100080000C945D000C945D000C945D0011241FBE67
:10009000CFEFD0E4DEBFCDBF11E0A0E0B1E0E4EAF5
:1000A000F1E000E00BBF02C007900D92AE30B10747
:1000B000D9F70E9488000C94D0000C940000CF93D4
:1000C000DF9300D01F92CDB7DEB789837B836A832D
:1000D00089818A3031F48A819B81BC018DE00E9444
:1000E0005F0080EC90E0FC018081882F90E08072BE
:1000F00099270097B1F386EC90E02981FC012083D9
:1001000080E090E00F900F900F90DF91CF910895D5
:10011000CF93DF931F92CDB7DEB784E290E021E06A
:10012000FC01208385E290E021E0FC01208384E251
:1001300090E02EEFFC01208385E290E021E0FC01BD
:1001400020838AE290E0FC01108282E290E02FEFAF
:10015000FC012083198285E290E0FC01108289E293
:1001600090E0FC01808189838981833248F085E2B7
:1001700090E025E230E0F90120812260FC0120833B
:100180008981833260F48981833048F085E290E090
:1001900025E230E0F90120812460FC012083DBCFDF
:0401A000F894FFCF01
:0E01A40000000002000000005F0000000000EC
:00000001FF
