:100000000C9446000C945D000C945D000C945D0013
:100010000C945D000C945D000C945D000C945D00EC
:100020000C945D000C945D000C945D000C945D00DC
:100030000C945D000C945D000C945D000C945D00CC
:100040000C945D000C945D000C945D000C945D00BC
:100050000C945D000C945D000C945D000C945D00AC
:100060000C945D000C945D000C945D000C945D009C
:100070000C945D000C945D000C945D000C945D008C
:100080000C945D000C945D000C945D0011241FBE67
:10009000CFEFD0E4DEBFCDBF11E0A0E0B1E0ECE4F3
:1000A000F2E000E00BBF02C007900D92AE30B10746
:1000B000D9F70E9488000C9424010C940000CF937F
:1000C000DF9300D01F92CDB7DEB789837B836A832D
:1000D00089818A3031F48A819B81BC018DE00E9444
:1000E0005F0080EC90E0FC018081882F90E08072BE
:1000F00099270097B1F386EC90E02981FC012083D9
:1001000080E090E00F900F900F90DF91CF910895D5
:10011000CF93DF9300D000D000D0CDB7DEB781E21F
:1001200090E0FC01108282E290E02FEFFC0120833E
:1001300087E290E02FEFFC01208388E290E0FC0151
:1001400010821E8219828FED8A8380E18B8380E288
:100150008C8380E290E0FC0180818E831D822BC025
:100160008E81282F30E08D81882F90E0880F991F95
:1001700001962817390794F08E81282F30E08D8161
:10018000882F90E00196880F991F8217930734F00B
:1001900099818A8198238C81892B89839A818B818B
:1001A000890F8A838B8186958B838C8186958C833E
:1001B0008D818F5F8D838D81833090F21D8231C060
:1001C0008E81482F50E08D81282F30E0C901880FA3
:1001D000991F820F931F079648175907ACF08E811D
:1001E000482F50E08D81282F30E0C901880F991FDA
:1001F000820F931F09968417950734F099818A819D
:1002000098238C81892B89839A818B81890F8A839A
:100210008B8186958B838C8186958C838D818F5F76
:100220008D838D81833060F28E81853020F48981C9
:100230008064898303C089818F7B898388E290E011
:0C0240002981FC0120837FCFF894FFCFC0
:0E024C0000000002000000005F000000000043
:00000001FF
