:100000000C9446000C9465000C9465000C946500FB
:100010000C9465000C9465000C9465000C946500CC
:100020000C9465000C9465000C9465000C946500BC
:100030000C9465000C9465000C9465000C946500AC
:100040000C9465000C9465000C9465000C9465009C
:100050000C9465000C9465000C9465000C9465008C
:100060000C9465000C9465000C9465000C9465007C
:100070000C9465000C9465000C9465000C9465006C
:100080000C9465000C9465000C94650011241FBE4F
:10009000CFEFD0E4DEBFCDBF11E0A0E0B1E0E2EFF2
:1000A000F2E000E00BBF02C007900D92AE30B10746
:1000B000D9F711E0AEE0B1E001C01D92A231B10765
:1000C000E1F70E944C010C9477010C940000CF934F
:1000D000DF9300D01F92CDB7DEB789837B836A831D
:1000E00089818A3031F48A819B81BC018DE00E9434
:1000F000670080EC90E0FC018081882F90E08072A6
:1001000099270097B1F386EC90E02981FC012083C8
:1001100080E090E00F900F900F90DF91CF910895C5
:10012000CF93DF93CDB7DEB780910E0190910F0191
:100130008230910569F18330910530F4009769F0C0
:1001400081309105A1F068C08330910509F43EC06B
:100150008430910509F450C05FC087E0809310019E
:1001600081E090E090930F0180930E0159C080913F
:100170001101882F90E081709927181619063CF418
:1001800082E090E090930F0180930E0149C048C037
:1001900080911101882F90E081709927009731F4A8
:1001A00081E090E090930F0180930E018091110106
:1001B000882F90E081709927009739F084E090E0D3
:1001C00090930F0180930E012BC02AC080911101E2
:1001D000882F90E081709927009739F481E090E0B2
:1001E00090930F0180930E011BC084E090E09093E8
:1001F0000F0180930E0114C080911101882F90E0AF
:1002000081709927009739F481E090E090930F0175
:1002100080930E0105C004C010920F0110920E01D0
:1002200080910E0190910F018230910539F0833059
:10023000910551F18130910559F12BC08091110147
:10024000882F90E0837099278130910549F480913F
:100250001001893028F4809110018F5F8093100184
:1002600080911101882F90E0837099278230910549
:1002700051F480911001882331F080911001815058
:100280008093100106C005C010921001000001C04B
:100290000000DF91CF910895CF93DF93CDB7DEB704
:1002A00081E290E0FC01108282E290E02FEFFC01FD
:1002B000208387E290E02FEFFC01208388E290E02A
:1002C000FC0110821092100110920F0110920E0189
:1002D00080E290E0FC018081809311010E949000F7
:1002E00088E290E020911001FC012083F1CFF89486
:0202F000FFCF3E
:0E02F200000000020000000067000000000095
:00000001FF
