:100000000C944D000C946C000C946C000C946C00DF
:100010000C946C000C946C000C946C000C946C00B0
:100020000C946C000C946C000C946C000C946C00A0
:100030000C946C000C946C000C946C000C946C0090
:100040000C946C000C946C000C946C000C946C0080
:100050000C946C000C946C000C946C000C946C0070
:100060000C946C000C946C000C946C000C946C0060
:100070000C946C000C946C000C946C000C946C0050
:100080000C946C000C946C000C946C00B100BE00DD
:100090000E0124013A015001660111241FBECFEF69
:1000A000D0E4DEBFCDBF11E0A0E0B1E0E6E5F5E0D1
:1000B00000E00BBF02C007900D92AE30B107D9F738
:1000C00011E0AEE0B1E001C01D92A431B107E1F74B
:1000D0000E9475020C94A9020C940000CF93DF9348
:1000E00000D01F92CDB7DEB789837B836A83898175
:1000F0008A3031F48A819B81BC018DE00E946E00C0
:1001000080EC90E0FC018081882F90E0807299273C
:100110000097B1F386EC90E02981FC01208380E018
:1001200090E00F900F900F90DF91CF910895CF93B3
:10013000DF93CDB7DEB780910E0190910F01CC0116
:10014000A0E0B0E040E050E026E030E0841B950BFA
:100150002817390708F4CEC08A5B9F4FFC010C9426
:10016000A00210921001109212011092110181E070
:1001700090E090930F0180930E01C0C08091130115
:10018000882F90E0877099278430910539F482E0B8
:1001900090E090930F0180930E013FC08091130176
:1001A000882F90E0877099278230910539F483E099
:1001B00090E090930F0180930E012FC08091130166
:1001C000882F90E0877099278130910539F484E079
:1001D00090E090930F0180930E011FC08091130156
:1001E00088233CF485E090E090930F0180930E010A
:1001F00014C080911301882F90E0877099271816FA
:10020000190624F08091130188233CF486E090E0E5
:1002100090930F0180930E0171C070C08091130103
:10022000882F90E087709927009739F481E090E05B
:1002300090930F0180930E0161C086E090E090934F
:100240000F0180930E015AC080911301882F90E016
:1002500087709927009739F481E090E090930F011F
:1002600080930E014BC086E090E090930F01809345
:100270000E0144C080911301882F90E08770992768
:10028000009739F481E090E090930F0180930E0184
:1002900035C086E090E090930F0180930E012EC050
:1002A00080911301882F90E087709927009739F487
:1002B00081E090E090930F0180930E011FC086E0D3
:1002C00090E090930F0180930E0118C0809113016C
:1002D000882F90E087709927009759F48091130137
:1002E00088233CF081E090E090930F0180930E0111
:1002F00005C004C010920F0110920E0180910E01F2
:1003000090910F018330910579F18430910540F48B
:100310008130910509F4E5C08230910551F0E2C0C9
:100320008430910509F46CC08530910509F4B9C099
:10033000D9C08091110190911201009731F481E0B0
:1003400090E090931201809311018091110190919E
:1003500012018730910539F484E090E09093120106
:1003600080931101BFC0BEC0809111019091120114
:100370008130910521F410921201109211018091A7
:100380001101909112018430910531F487E090E0E1
:1003900090931201809311018091110190911201AB
:1003A0008330910521F41092120110921101809175
:1003B0001101909112018630910531F487E090E0AF
:1003C000909312018093110180911101909112017B
:1003D0008230910531F483E090E090931201809394
:1003E000110180911101909112018530910539F42C
:1003F00086E090E0909312018093110173C072C067
:1004000080911101909112018230910521F4109296
:100410001201109211018091110190911201853009
:10042000910531F487E090E09093120180931101DF
:1004300080911101909112018130910531F482E097
:1004400090E090931201809311018091110190919D
:1004500012018430910531F485E090E0909312010F
:1004600080931101809111019091120183309105C7
:1004700049F487E090E0909312018093110181E0AC
:1004800080931001809111019091120186309105A5
:1004900039F410921201109211011092100122C031
:1004A00021C080911101909112018730910531F4A2
:1004B00010921201109211011092100180911101FD
:1004C00090911201009761F08091110190911201B9
:1004D0008430910528F4109212011092110102C08B
:1004E00001C00000DF91CF910895CF93DF93CDB786
:1004F000DEB781E290E0FC01108282E290E02FEF13
:10050000FC01208384E290E02FEFFC01208388E24D
:1005100090E0FC0110821092100110920F011092D5
:100520000E0180E290E0FC018081809313010E9423
:10053000970085E290E020911001FC012083F1CF2B
:10054000EE0FFF1F0024001C0BBE0790F691E02D5C
:060550000994F894FFCFAE
:0E05560000000002000000006E000000000027
:00000001FF
