:100000000C9446000C9465000C9465000C946500FB
:100010000C9465000C9465000C9465000C946500CC
:100020000C9465000C9465000C9465000C946500BC
:100030000C9465000C9465000C9465000C946500AC
:100040000C9465000C9465000C9465000C9465009C
:100050000C9465000C9465000C9465000C9465008C
:100060000C9465000C9465000C9465000C9465007C
:100070000C9465000C9465000C9465000C9465006C
:100080000C9465000C9465000C94650011241FBE4F
:10009000CFEFD0E4DEBFCDBF11E0A0E0B1E0E4E8F7
:1000A000F2E000E00BBF02C007900D92AE30B10746
:1000B000D9F711E0AEE0B1E001C01D92A131B10766
:1000C000E1F70E9419010C9440010C940000CF93B9
:1000D000DF9300D01F92CDB7DEB789837B836A831D
:1000E00089818A3031F48A819B81BC018DE00E9434
:1000F000670080EC90E0FC018081882F90E08072A6
:1001000099270097B1F386EC90E02981FC012083C8
:1001100080E090E00F900F900F90DF91CF910895C5
:10012000CF93DF93CDB7DEB780910E0190910F0191
:1001300081309105A9F08130910540F08230910520
:1001400009F18330910509F43FC050C081E08093EC
:10015000100181E090E090930F0180930E014AC05E
:1001600080E290E0FC018081882F90E081709927E7
:10017000009739F082E090E090930F0180930E0198
:1001800039C038C080E290E0FC018081882F90E087
:1001900081709927009731F481E090E090930F01EE
:1001A00080930E0180E290E0FC018081882F90E036
:1001B00081709927009739F083E090E090930F01C8
:1001C00080930E0117C016C080E290E0FC01808190
:1001D000882F90E081709927009739F481E090E0B2
:1001E00090930F0180930E0105C004C010920F017F
:1001F00010920E0180910E0190910F0181309105B6
:10020000A1F08230910509F011C080911001882F72
:1002100090E083709927009721F082E0809310018D
:1002200005C081E08093100101C00000DF91CF91F3
:100230000895CF93DF93CDB7DEB781E290E0FC0164
:10024000108282E290E02FEFFC01208384E290E0B4
:100250002FEFFC01208385E290E0FC0110821092D8
:10026000100110920F0110920E01109210010E94C5
:10027000900085E290E020911001FC012083F5CFF1
:04028000F894FFCF20
:0E028400000000020000000067000000000003
:00000001FF
